:100000000C9434000C9446000C9446000C9446006A
:100010000C9446000C9446000C94AB000C944600E3
:100020000C9446000C9446000C9446000C94460038
:100030000C9446000C9446000C9446000C94460028
:100040000C9446000C9446000C9446000C94460018
:100050000C9446000C9446000C9446000C94460008
:100060000C9446000C94460011241FBECFEFD8E03C
:10007000DEBFCDBF11E0A0E0B1E001C01D92A43011
:10008000B107E1F70E9448000C9416010C9400009F
:10009000CF93DF930E94D9000E94EF000E9493004B
:1000A000CCE2D1E00E94880025E030E040E050E062
:1000B0000E94F400611571058105910559F40E94B3
:1000C000DC0084EF91E0FE013197F1F70197D9F759
:1000D0000E94DE000E946D00E5CF83B7816083BF80
:1000E00085B7806685BF8F7D85BF7894889583B7F7
:1000F0008E7F83BF0895EAE7F0E080818F77808369
:10010000089580B7877F80BF80B7806880BF0895DB
:1001100020910001309101014091020150910301B1
:10012000B901CA010895F894E0E6F0E088E180831F
:1001300085E48083EAE7F0E080818F77808380B771
:10014000877F80BF80B7806880BF83B7817F8460EE
:1001500083BF789408951F920F920FB60F921124C7
:100160008F939F93AF93BF93EF93FF93E0E6F0E0FD
:100170008081806480838091000190910101A09131
:100180000201B09103010196A11DB11D80930001F0
:1001900090930101A0930201B0930301FF91EF91AD
:1001A000BF91AF919F918F910F900FBE0F901F90B5
:1001B0001895549A5C9808955C9A08955C980895EF
:1001C0008BB190E024E0969587952A95E1F78170B0
:1001D00008955C9B02C05C9808955C9A08955298BB
:1001E00053985A9A5B9A0895A1E21A2EAA1BBB1B38
:1001F000FD010DC0AA1FBB1FEE1FFF1FA217B307F3
:10020000E407F50720F0A21BB30BE40BF50B661F08
:10021000771F881F991F1A9469F7609570958095CC
:1002200090959B01AC01BD01CF010895F894FFCFDB
:00000001FF
